{
  "contractName": "Todo",
  "abi": [
    {
      "inputs": [
        {
          "internalType": "address",
          "name": "",
          "type": "address"
        },
        {
          "internalType": "uint256",
          "name": "",
          "type": "uint256"
        }
      ],
      "name": "todos",
      "outputs": [
        {
          "internalType": "string",
          "name": "description",
          "type": "string"
        }
      ],
      "stateMutability": "view",
      "type": "function"
    },
    {
      "inputs": [
        {
          "internalType": "string",
          "name": "description",
          "type": "string"
        }
      ],
      "name": "addTodo",
      "outputs": [
        {
          "internalType": "uint256",
          "name": "addedIndex",
          "type": "uint256"
        }
      ],
      "stateMutability": "nonpayable",
      "type": "function"
    },
    {
      "inputs": [
        {
          "internalType": "uint256",
          "name": "index",
          "type": "uint256"
        }
      ],
      "name": "remove",
      "outputs": [
        {
          "internalType": "uint256",
          "name": "newLength",
          "type": "uint256"
        }
      ],
      "stateMutability": "nonpayable",
      "type": "function"
    },
    {
      "inputs": [],
      "name": "getTodos",
      "outputs": [
        {
          "internalType": "string[]",
          "name": "",
          "type": "string[]"
        }
      ],
      "stateMutability": "view",
      "type": "function"
    }
  ],
  "bytecode": "0x608060405234801561001057600080fd5b50610bf8806100206000396000f3fe608060405234801561001057600080fd5b506004361061004c5760003560e01c8063428c1889146100515780634cc822151461008157806395ffebf5146100b1578063c33926cb146100e1575b600080fd5b61006b600480360381019061006691906106bc565b6100ff565b6040516100789190610795565b60405180910390f35b61009b600480360381019061009691906107b7565b6101be565b6040516100a891906107f3565b60405180910390f35b6100cb60048036038101906100c69190610943565b610276565b6040516100d891906107f3565b60405180910390f35b6100e9610352565b6040516100f69190610a98565b60405180910390f35b6000602052816000526040600020818154811061011b57600080fd5b906000526020600020016000915091505080600001805461013b90610ae9565b80601f016020809104026020016040519081016040528092919081815260200182805461016790610ae9565b80156101b45780601f10610189576101008083540402835291602001916101b4565b820191906000526020600020905b81548152906001019060200180831161019757829003601f168201915b5050505050905081565b60008060003373ffffffffffffffffffffffffffffffffffffffff1673ffffffffffffffffffffffffffffffffffffffff16815260200190815260200160002082815481106102105761020f610b1b565b5b906000526020600020016000808201600061022b9190610531565b50506000803373ffffffffffffffffffffffffffffffffffffffff1673ffffffffffffffffffffffffffffffffffffffff168152602001908152602001600020805490509050919050565b60008060003373ffffffffffffffffffffffffffffffffffffffff1673ffffffffffffffffffffffffffffffffffffffff168152602001908152602001600020604051806020016040528084815250908060018154018082558091505060019003906000526020600020016000909190919091506000820151816000019080519060200190610306929190610571565b5050506000803373ffffffffffffffffffffffffffffffffffffffff1673ffffffffffffffffffffffffffffffffffffffff168152602001908152602001600020805490509050919050565b6060806000803373ffffffffffffffffffffffffffffffffffffffff1673ffffffffffffffffffffffffffffffffffffffff168152602001908152602001600020805480602002602001604051908101604052809291908181526020016000905b82821015610473578382906000526020600020016040518060200160405290816000820180546103e290610ae9565b80601f016020809104026020016040519081016040528092919081815260200182805461040e90610ae9565b801561045b5780601f106104305761010080835404028352916020019161045b565b820191906000526020600020905b81548152906001019060200180831161043e57829003601f168201915b505050505081525050815260200190600101906103b3565b5050505090506000815167ffffffffffffffff81111561049657610495610818565b5b6040519080825280602002602001820160405280156104c957816020015b60608152602001906001900390816104b45790505b50905060005b8251811015610528578281815181106104eb576104ea610b1b565b5b60200260200101516000015182828151811061050a57610509610b1b565b5b6020026020010181905250808061052090610b79565b9150506104cf565b50809250505090565b50805461053d90610ae9565b6000825580601f1061054f575061056e565b601f01602090049060005260206000209081019061056d91906105f7565b5b50565b82805461057d90610ae9565b90600052602060002090601f01602090048101928261059f57600085556105e6565b82601f106105b857805160ff19168380011785556105e6565b828001600101855582156105e6579182015b828111156105e55782518255916020019190600101906105ca565b5b5090506105f391906105f7565b5090565b5b808211156106105760008160009055506001016105f8565b5090565b6000604051905090565b600080fd5b600080fd5b600073ffffffffffffffffffffffffffffffffffffffff82169050919050565b600061065382610628565b9050919050565b61066381610648565b811461066e57600080fd5b50565b6000813590506106808161065a565b92915050565b6000819050919050565b61069981610686565b81146106a457600080fd5b50565b6000813590506106b681610690565b92915050565b600080604083850312156106d3576106d261061e565b5b60006106e185828601610671565b92505060206106f2858286016106a7565b9150509250929050565b600081519050919050565b600082825260208201905092915050565b60005b8381101561073657808201518184015260208101905061071b565b83811115610745576000848401525b50505050565b6000601f19601f8301169050919050565b6000610767826106fc565b6107718185610707565b9350610781818560208601610718565b61078a8161074b565b840191505092915050565b600060208201905081810360008301526107af818461075c565b905092915050565b6000602082840312156107cd576107cc61061e565b5b60006107db848285016106a7565b91505092915050565b6107ed81610686565b82525050565b600060208201905061080860008301846107e4565b92915050565b600080fd5b600080fd5b7f4e487b7100000000000000000000000000000000000000000000000000000000600052604160045260246000fd5b6108508261074b565b810181811067ffffffffffffffff8211171561086f5761086e610818565b5b80604052505050565b6000610882610614565b905061088e8282610847565b919050565b600067ffffffffffffffff8211156108ae576108ad610818565b5b6108b78261074b565b9050602081019050919050565b82818337600083830152505050565b60006108e66108e184610893565b610878565b90508281526020810184848401111561090257610901610813565b5b61090d8482856108c4565b509392505050565b600082601f83011261092a5761092961080e565b5b813561093a8482602086016108d3565b91505092915050565b6000602082840312156109595761095861061e565b5b600082013567ffffffffffffffff81111561097757610976610623565b5b61098384828501610915565b91505092915050565b600081519050919050565b600082825260208201905092915050565b6000819050602082019050919050565b600082825260208201905092915050565b60006109d4826106fc565b6109de81856109b8565b93506109ee818560208601610718565b6109f78161074b565b840191505092915050565b6000610a0e83836109c9565b905092915050565b6000602082019050919050565b6000610a2e8261098c565b610a388185610997565b935083602082028501610a4a856109a8565b8060005b85811015610a865784840389528151610a678582610a02565b9450610a7283610a16565b925060208a01995050600181019050610a4e565b50829750879550505050505092915050565b60006020820190508181036000830152610ab28184610a23565b905092915050565b7f4e487b7100000000000000000000000000000000000000000000000000000000600052602260045260246000fd5b60006002820490506001821680610b0157607f821691505b60208210811415610b1557610b14610aba565b5b50919050565b7f4e487b7100000000000000000000000000000000000000000000000000000000600052603260045260246000fd5b7f4e487b7100000000000000000000000000000000000000000000000000000000600052601160045260246000fd5b6000610b8482610686565b91507fffffffffffffffffffffffffffffffffffffffffffffffffffffffffffffffff821415610bb757610bb6610b4a565b5b60018201905091905056fea26469706673582212203260ec0a41b281051855a5e53706ea12b4b94dbbcd3b01e0a08032920b600b8164736f6c63430008090033",
  "immutableReferences": {},
  "source": "// SPDX-License-Identifier: MIT\npragma solidity >=0.8.9;\n\ncontract Todo {\n  struct STodo {\n    string description;\n  }\n\n  mapping(address => STodo[]) public todos;\n\n  function addTodo(string memory description)\n    public\n    returns (uint256 addedIndex)\n  {\n    todos[msg.sender].push(STodo(description));\n    return todos[msg.sender].length;\n  }\n\n  function remove(uint256 index) public returns (uint256 newLength) {\n    delete todos[msg.sender][index];\n    return todos[msg.sender].length;\n  }\n\n  function getTodos() public view returns (string[] memory) {\n    STodo[] memory t;\n    t = todos[msg.sender];\n    string[] memory data = new string[](t.length);\n    for (uint256 index = 0; index < t.length; index++) {\n      data[index] = t[index].description;\n    }\n    return data;\n  }\n}\n",
  "sourcePath": "/home/angelu/Documents/Dev Projects/Solidity/truffle-next-boilerplate/truffle/contracts/Todo.sol",
  "compiler": {
    "name": "solc",
    "version": "0.8.9+commit.e5eed63a.Emscripten.clang"
  },
  "schemaVersion": "3.4.3",
  "updatedAt": "2021-10-06T03:31:32.662Z",
  "devdoc": {
    "kind": "dev",
    "methods": {},
    "version": 1
  },
  "userdoc": {
    "kind": "user",
    "methods": {},
    "version": 1
  }
}